:020000040800F2
:1000000000000120C1030008E5010008D10100083B
:10001000CD010008B9010008A5010008000000009A
:10002000000000000000000000000000A101000826
:100030009D0100080000000099010008E901000886
:100040009501000895010008950100089501000838
:100050009501000895010008950100089501000828
:100060009501000895010008950100089501000818
:100070009501000895010008950100089501000808
:100080009501000895010008950100080000000096
:1000900000000000000000000000000095010008C2
:1000A00095010008950100089501000895010008D8
:1000B00095010008950100089501000895010008C8
:1000C00095010008950100089501000895010008B8
:1000D0009501000895010008950100080000000046
:1000E0009501000895010008950100080000000036
:1000F0000000000000000000000000009501000862
:100100000000000095010008950100089501000815
:1001100000000000000000000000000000000000DF
:100120009501000895010008950100089501000857
:100130009501000800000000000000000000000021
:100140000000000000000000000000009501000811
:100150009501000895010008950100089501000827
:100160009501000895010008000000000000000053
:10017000000000000000000000000000000000007F
:1001800000000000950100080000000000000000D1
:100190009501000800BEFEE700BEFEE700BEFEE7D8
:1001A00000BEFEE71EF0040F0CBFEFF30880EFF374
:1001B00009807146844A10471EF0040F0CBFEFF30C
:1001C0000880EFF309807146804A104700BEFEE7C1
:1001D0001EF0040F0CBFEFF30880EFF309807146A7
:1001E0007B4A104700BEFEE708B500F05FFA08BD85
:1001F00080B582B007468846084B5D6B9C6B9E6A53
:10020000074800F075FACDF80080384631462A4696
:10021000234600F087FA00BEFEE700BF00ED00E0D5
:100220007420000880B582B007468846084B5D6B95
:100230009C6B9E6A074800F05BFACDF80080384658
:1002400031462A46234600F06DFA00BEFEE700BFA5
:1002500000ED00E0842000082DE9F04182B0044662
:100260008846134B5E6B9D6B9F6A1B6B13F0020FEE
:100270000DD00F4BDB6A002B09DA4BF6AB6100F0B7
:100280002FF920B14FF00042094BDA620CE0094827
:1002900000F02EFACDF800802046394632462B4633
:1002A00000F040FA00BEFEE702B0BDE8F08100BFFA
:1002B00000ED00E09020000800B583B000F020F9C8
:1002C000304B314A1360314A136031490CE00A68FF
:1002D0004B6801F10C04886803E01168196004336D
:1002E00004329842F9D821462A4B9942EFD3264B43
:1002F0001A68294B9A4204D1244B1A68274B9A4218
:1003000000D0FEE71F4B264A1360264A1360264B97
:100310000AE0194651F8082B5B6802E000201060E3
:1003200004329A42FAD30B46204A9342F1D31C4B33
:100330001B6813B91B4B1B6803B1FEE701F02AF9D8
:1003400001A8694600F016F9194C1A4B1C1BA410A1
:10035000002504E0164B53F8253098470135AC4290
:10036000F8DC154C154B1C1BA410002504E0124BA7
:1003700053F8253098470135AC42F8DC01980099D4
:1003800000F022FEBABADECA00000020840000207D
:10039000D4030008EC0300087856341232547698DF
:1003A0008800002024010020EC030008FC03000862
:1003B000FC030008FC030008FC030008FC03000821
:1003C00008B5FFF779FF0000F101000825020008D9
:0403D00059020008C6
:1003D400D82000080000002088000020D820000851
:1003E40000000010000000108800002028010020F8
:0803F4000000001000000010E1
:1003FC00234B9B6803F00C03042B07D0082B09D06C
:10040C00002B2DD11F4A204B1A602CE01F4A1E4B8B
:10041C001A6028E01A4B5A685B6803F03F0312F429
:10042C00800F09D0194AB2FBF3F2154B5B68C3F38A
:10043C00881303FB02F208E0124AB2FBF3F3104AF2
:10044C005168C1F3881101FB03F20D4B5B68C3F3D8
:10045C00014301335B00B2FBF3F30B4A136002E080
:10046C00084A094B1A60064B9B68C3F30313084AEE
:10047C00D25CD2B204490B68D3400B60704700BF0A
:10048C00003802400024F4001C00002000127A0006
:10049C000C0000200C4B1A6842F001021A6000217B
:1004AC0099601A6822F0847222F480321A60074A2A
:1004BC005A601A6822F480221A60D9604FF00062E8
:1004CC00034B9A60704700BF003802401030002484
:1004DC0000ED00E083691A888A4207D10268033A6A
:1004EC00012A05D802338361012070470020704730
:1004FC000020704708B5FFF7CDFF08BD2DE9F0438C
:10050C0085B004460F46435C13BB042528462146A0
:10051C00ABBE04461FE03546102E28BF1025002325
:10052C0006E014F8011B04AA1A4402F8101C01334B
:10053C00AB42F6D304AA1344002203F8102CE9466C
:10054C004FF0040840464946ABBE8046761B00E09F
:10055C000E46002EDFD1384605B0BDE8F08300BF53
:10056C0008B5FFF7CBFF08BD01230360014B0B60FF
:10057C00704700BF04000020FEE700BF224B9B68C1
:10058C0003F00C03042B3DD0082B01D01F487047FF
:10059C001D4B586800F03F005B6813F4800F10D0BF
:1005AC001B4BB3FBF0F3184A506847F6C07210406F
:1005BC0092FAA2F2B2FA82F2D2B2D04000FB03F36A
:1005CC000FE0124BB3FBF0F30F4A506847F6C072C2
:1005DC00104092FAA2F2B2FA82F2D2B2D04000FBF0
:1005EC0003F3094A506800F440304FF4403292FA59
:1005FC00A2F2B2FA82F2D2B2D04001304000B3FB88
:10060C00F0F0704702487047003802400024F400B4
:10061C0000127A0008B5FFF7B1FF094B9B6803F095
:10062C00F002F02393FAA3F3B3FA83F3DBB222FACA
:10063C0003F3044AD35CD840034B186008BD00BFD9
:10064C00003802405C1E00081C0000200138B0F18C
:10065C00807F0AD2064B5860F021064A82F823109C
:10066C000020986007221A6070470120704700BF75
:10067C0010E000E000ED00E0014B1868704700BF8F
:10068C001001002010B582B00190FFF7F5FF044671
:10069C00FFF7F2FF001B019B9842F9D302B010BD8B
:1006AC00024A136801331360704700BF1001002029
:1006BC0010B5044600F098FF01462046FFF750FFA6
:1006CC0002480121FFF74CFF10BD00BF181F0008A6
:1006DC0008B50348FFF7ECFF0120FFF74DFF00BF03
:1006EC006C1E00080FB400B583B004AB53F8042B98
:1006FC0001930848802100F0A9FF011E03DD054885
:10070C00FFF72EFF0146084603B05DF804EB04B07A
:10071C00704700BF8C000020F8B504460D46174604
:10072C001E462648FFF7DEFF25482168FFF7DAFF53
:10073C0024486168FFF7D6FF2348A168FFF7D2FF72
:10074C002248E168FFF7CEFF21482169FFF7CAFF75
:10075C0020486169FFF7C6FF1F48A169FFF7C2FF78
:10076C001E48E169FFF7BEFF1D48FFF7BBFF1D48A0
:10077C002946FFF7B7FF1C4CE16A1C48FFF7B2FF94
:10078C00216B1B48FFF7AEFFE16B1A48FFF7AAFF7E
:10079C0015F0800F03D018483946FFF7A3FF15F466
:1007AC00004F03D015483146FFF79CFF1448FFF764
:1007BC0099FF14480699FFF795FFF8BD801E0008B5
:1007CC00901E0008A01E0008B01E0008C01E0008E5
:1007DC00D01E0008E01E0008F01E0008001F0008D4
:1007EC00101F00081C1F000800ED00E02C1F000863
:1007FC003C1F00084C1F00085C1F00086C1F000801
:10080C007C1F0008841F000808B503460A460348ED
:10081C001946FFF767FFFFF75BFF00BF9C1F00083F
:10082C0030B583B0044603680F2B04D9B24840F2AC
:10083C001711FFF7E9FF036813F0010F5FD043684E
:10084C00012B06D9052B04D0AB484FF48E71FFF762
:10085C00DBFFAA4B9B6803F00C03042B0AD0A74BBD
:10086C009B6803F00C03082B0DD1A44B5B6813F4AD
:10087C00800F08D0A14B1B6813F4003F3FD0636876
:10088C00002B3CD1FBE100229D4B1A70FFF7F4FECC
:10089C00054607E0FFF7F0FE401B41F28833984213
:1008AC0000F2EF81954B1B6813F4003FF2D12279D3
:1008BC00934B1A7063688BB1FFF7DEFE054607E0B9
:1008CC00FFF7DAFE401B41F28833984200F2DB81DD
:1008DC008A4B1B6813F4003FF2D010E0FFF7CCFEFC
:1008EC00054607E0FFF7C8FE401B41F288339842EB
:1008FC0000F2CB81814B1B6813F4003FF2D12368CB
:10090C0013F0020F6DD0E368012B04D97A4840F242
:10091C005D11FFF779FF23691F2B04D976484FF43B
:10092C00AF71FFF771FF754B9B6813F00C0F0AD07A
:10093C00724B9B6803F00C03082B1CD16F4B5B684C
:10094C0013F4800F17D16D4B1B6813F0020F03D0FB
:10095C00E368012B40F09B816848026822F0F801A3
:10096C002269F82393FAA3F3B3FA83F3DBB29A4028
:10097C000A43026035E0E3680BB30122614B1A6055
:10098C00FFF77AFE054605E0FFF776FE401B64286C
:10099C0000F27F81594B1B6813F0020FF4D05748BB
:1009AC00036823F0F8012269F82393FAA3F3B3FA4E
:1009BC0083F3DBB29A4041EA0203036011E00022A8
:1009CC00504B1A60FFF758FE054605E0FFF754FE42
:1009DC00401B642800F25F81484B1B6813F0020F28
:1009EC00F4D1236813F0080F2ED06369012B04D9BE
:1009FC0041484FF4CF71FFF707FF636993B10122B0
:100A0C00414B1A60FFF738FE054605E0FFF734FE50
:100A1C00401B642800F24181384B5B6F13F0020FCE
:100A2C00F4D011E00022384B1A60FFF725FE054682
:100A3C0005E0FFF721FE401B642800F230812F4BAC
:100A4C005B6F13F0020FF4D1236813F0040F72D014
:100A5C00A368012B06D9052B04D027484FF4E47169
:100A6C00FFF7D2FE254B1A6C42F080521A641B6CB5
:100A7C0003F080530193019B244A136843F4807361
:100A8C001360FFF7F9FD054605E0FFF7F5FD401B88
:100A9C00642800F206811D4B1B6813F4807FF4D090
:100AAC0000221B4B1A70FFF7E7FD054607E0FFF726
:100ABC00E3FD401B41F28833984200F2F4800F4B67
:100ACC001B6F13F0020FF2D1227A114B1A70A3682C
:100ADC0003B3FFF7D1FD054607E0FFF7CDFD401B43
:100AEC0041F28833984200F2E080044B1B6F13F004
:100AFC00020FF2D01FE000BFC81F000800380240F0
:100B0C000238024000004742800E4742007000400D
:100B1C0070380240FFF7B0FD054607E0FFF7ACFD6B
:100B2C00401B41F28833984200F2C180664B1B6F28
:100B3C0013F0020FF2D1A369022B04D963484FF4CE
:100B4C000371FFF761FEA369002B00F0B2805E4ACF
:100B5C00926802F00C02082A00F0AD80022B7BD1C7
:100B6C00E3693BB1B3F5800F04D0584840F215212E
:100B7C00FFF74AFE236A3F2B04D9544840F2162152
:100B8C00FFF742FE636AC03BF02B04D94F4840F29A
:100B9C001721FFF739FEA36A022B0AD0042B08D0C9
:100BAC00062B06D0082B04D048484FF40671FFF7EB
:100BBC002BFEE36A043B0B2B04D9444840F2192169
:100BCC00FFF722FE0022424B1A60FFF755FD054647
:100BDC0004E0FFF751FD401B64286ED83A4B1B68AC
:100BEC0013F0007FF5D1E169236A1943626A47F675
:100BFC00C07393FAA3F3B3FA83F3DBB29A401143B5
:100C0C00A36A5B08013B4FF4403292FAA2F2B2FAAB
:100C1C0082F2D2B293400B43E16A4FF0706292FAC7
:100C2C00A2F2B2FA82F2D2B201FA02F21343264ACB
:100C3C0053600122264B1A60FFF71EFD044604E0A8
:100C4C00FFF71AFD001B642839D81F4B1B6813F0E3
:100C5C00007FF5D0002035E000221D4B1A60FFF715
:100C6C000BFD044604E0FFF707FD001B642828D8A1
:100C7C00154B1B6813F0007FF5D1002022E00120FA
:100C8C0020E003201EE003201CE003201AE00120DA
:100C9C0018E0032016E0032014E0032012E00320E8
:100CAC0010E003200EE003200CE003200AE00320F8
:100CBC0008E0002006E0012004E0032002E003200D
:100CCC0000E0032003B030BD00380240C81F00080C
:100CDC006000474208B521B9084840F2B111FFF74E
:100CEC0093FD012A04D905484FF4D971FFF78CFD07
:100CFC000AB1816108BD0B04836108BDF81F0008AF
:100D0C002DE9F04182B0A74B984217D003F58063D0
:100D1C00984213D003F5806398420FD003F580639B
:100D2C0098420BD003F58063984207D003F54063DB
:100D3C00984203D09C48C521FFF766FD0B881BB970
:100D4C009948C621FFF760FD4B68012B22D9112B66
:100D5C0020D0022B1ED0122B1CD0944A934219D0B7
:100D6C0002F58012934215D002F58012934211D0F5
:100D7C00A2F5F81293420DD002F58012934209D0DD
:100D8C0002F58012934205D0032B03D08648C7216D
:100D9C00FFF73AFD8B68022B40F2FC808248C82199
:100DAC00FFF732FD9C4601229A400C681440944295
:100DBC0040F0EE804D68022D01D0122D40D10D690E
:100DCC004DB3092D27D035B32DB325B31DB3012D4C
:100DDC0021D020D0022D1ED01DD01CD0042D1AD015
:100DEC0019D018D0052D16D015D0062D13D0052DE1
:100DFC0011D0072D0FD00ED0082D0CD00A2D0AD0F3
:100E0C00092D08D007D00C2D05D00F2D03D0664826
:100E1C00D921FFF7F9FC4FEAD30E0EF1080E50F86A
:100E2C002E7003F007084FEA88080F2505FA08F51D
:100E3C0027EA05060D6905FA08F5354340F82E50EA
:100E4C0006684FEA430E032505FA0EF5ED4305EA55
:100E5C0006084F6807F0030707FA0EF747EA08067B
:100E6C0006604E68771E012F03D9112E01D0122E69
:100E7C0019D1CE68032E03D94B48EC21FFF7C4FCE3
:100E8C00866805EA0607CE6806FA0EF63E438660CB
:100E9C00476827EA02074E68C6F3001202FA0CF6FE
:100EAC0046EA07024260C2682A408D6805FA0EF5D0
:100EBC001543C5604A6812F0805F69D03C4A556C96
:100ECC0045F480455564526C02F480420192019ABB
:100EDC009F08BD1C374A52F8256003F0030E4FEAF9
:100EEC008E0E0F2202FA0EF226EA02052D4A9042CD
:100EFC0019D002F58062904213D002F580629042C4
:100F0C000DD002F58062904207D002F580629042CB
:100F1C0001D1042208E0052206E0032204E00222AB
:100F2C0002E0012200E0002202FA0EF22A4302370C
:100F3C00204D45F82720204A1568E24302EA0506B1
:100F4C004F6817F4803F01D044EA05061A4D2E6015
:100F5C006D6802EA05064F6817F4003F01D044EAB9
:100F6C000506154D6E60AD6802EA05064F6817F46C
:100F7C00801F01D044EA05060F4DAE60ED682A4093
:100F8C004E6816F4001F01D044EA05020A4CE260D8
:100F9C00013300E000230F2B7FF604AF02B0BDE855
:100FAC00F08100BF00000240F81F00080000111083
:100FBC000038024000380140003C014000B587B0C9
:100FCC001D4A136B43F00103136320230193012388
:100FDC000293022204920393184801A9FFF790FE92
:100FEC00174C18482168FFF77DFB23684FF47A7281
:100FFC00B3FBF2F3013BB3F1807F09D2124A536089
:10100C00F021124B83F82310002393600723136005
:10101C000A4C204620210122FFF75CFE6420FFF7DA
:10102C0031FB204620210022FFF754FE4FF4617063
:10103C00FFF728FBECE700BF00380240000002403D
:10104C001C0000202820000810E000E000ED00E06B
:10105C0008B5042805D020B109484FF4C271FFF738
:10106C00D3FB042805D1074A136843F0040313602B
:10107C0008BD044A136823F00403136008BD00BFC5
:10108C004020000810E000E038B50F2A03D91A48B8
:10109C00BC21FFF7B9FB0F2903D91748BD21FFF776
:1010AC00B3FB164BDC68C4F30224C4F10705042D12
:1010BC0028BF0425231D062B01D9033C00E0002486
:1010CC00012303FA05F5013D2940A140A340013B52
:1010DC001A400A43002806DA00F00F001201D2B2BF
:1010EC00074B1A5438BD1201D2B200F1604000F522
:1010FC00614080F8002338BD4020000800ED00E07E
:10110C0014ED00E010B50446FFF784FA4FF47A733F
:10111C00B0FBF3F0FFF79AFA4FF0FF3021460022B4
:10112C00FFF7B2FF002010BD70B504460368013B09
:10113C000E2B04D9AB484FF41F71FFF765FB0D461E
:10114C00072904D9A74840F27D21FFF75DFBA64B88
:10115C001B6803F00F038B4280F09880CAB2A24B3D
:10116C001A701B6803F00F038B4240F06C8103680C
:10117C0013F0020F1DD08368A3B1802B12D0902BDB
:10118C0010D0A02B0ED0B02B0CD0C02B0AD0D02B53
:10119C0008D0E02B06D0F02B04D0924840F29321DB
:1011AC00FFF732FB91498B6823F0F002A3681343DD
:1011BC008B60236813F0010F00F0FC806368032B35
:1011CC0004D9884840F29A21FFF71EFB6268012A75
:1011DC0005D1864B1B6813F4003F0FD135E1931EEC
:1011EC00012B05D8814B1B6813F0007F06D12EE133
:1011FC007E4B1B6813F0020F00F02B817B498B6830
:10120C0023F0030313438B60FFF736FA054663683C
:10121C00012B0FD107E0FFF72FFA401B41F2883367
:10122C00984200F21881714B9B6803F00C03042B5D
:10123C00F1D1BFE0022B0FD107E0FFF71DFA401BE5
:10124C0041F28833984200F20881684B9B6803F0A6
:10125C000C03082BF1D1ADE0032B11D1634B9B6830
:10126C00FFF70AFA401B41F288339842F6D9F6E0B0
:10127C00FFF702FA401B41F28833984200F2F180EA
:10128C005A4B9B6813F00C0FF2D193E0036813F0E8
:10129C00020F1DD08368A3B1802B12D0902B10D0DD
:1012AC00A02B0ED0B02B0CD0C02B0AD0D02B08D03A
:1012BC00E02B06D0F02B04D04A4840F2ED21FFF78A
:1012CC00A3FA4A498B6823F0F002A36813438B609E
:1012DC00236813F0010F65D06368032B04D94148D0
:1012EC004FF43D71FFF790FA6268012A05D13F4B2C
:1012FC001B6813F4003F0FD1B5E0931E012B05D8EA
:10130C003A4B1B6813F0007F06D1AEE0374B1B68DD
:10131C0013F0020F00F0AB8034498B6823F0030309
:10132C0013438B60FFF7A8F906466368012B0FD1B6
:10133C0007E0FFF7A1F9801B41F28833984200F2D5
:10134C0098802A4B9B6803F00C03042BF1D129E005
:10135C00022B0FD107E0FFF78FF9801B41F2883386
:10136C00984200F28880214B9B6803F00C03082BF9
:10137C00F1D117E0032B10D11C4B9B68FFF77CF9C4
:10138C00801B41F288339842F6D976E0FFF774F966
:10139C00801B41F28833984271D8144B9B6813F030
:1013AC000C0FF3D1EAB2104B1A701B6803F00F0349
:1013BC00AB4266D1236813F0040F20D0E368BBB1B5
:1013CC00B3F5805F14D0B3F5A05F11D0B3F5C05F57
:1013DC000ED0B3F5E05F0BD0024840F24E31FFF770
:1013EC0013FA00BFC81F0008003C0240003802403E
:1013FC0025498B6823F4E052E36813438B60236820
:10140C0013F0080F1AD0236983B1B3F5805F0DD0A8
:10141C00B3F5A05F0AD0B3F5C05F07D0B3F5E05FBA
:10142C0004D01A4840F25531FFF7EEF9164A93688A
:10143C0023F46043216943EAC10393600F20FFF753
:10144C0061FE002070BD012070BD012070BD012027
:10145C0070BD012070BD032070BD032070BD032042
:10146C0070BD032070BD012070BD012070BD012036
:10147C0070BD032070BD032070BD032070BD032020
:10148C0070BD012070BD00BF00380240C81F0008AD
:10149C0030B595B0204B1A6C42F080521A641B6C1C
:1014AC0003F080530193019B1C4B1A6842F4404299
:1014BC001A601B6803F440430293029B01230893B8
:1014CC0009934FF480030F93082310934FF4A873E0
:1014DC001193042512950723139302240E9408A844
:1014EC00FFF79EF90F2303930494002305934FF405
:1014FC0080520692079303A82146FFF715FEFFF7CB
:10150C0089F84FF47A73B0FBF3F0FFF79FF8284695
:10151C00FFF79EFD15B030BD003802400070004052
:10152C0008B5C31E042B03D90948A421FFF76CF995
:10153C0000F00700074AD36823F4E0631B041B0C7C
:10154C0043EA002040F0BF6040F40030D06008BD9A
:10155C004020000800ED00E008B50A4B1A6842F480
:10156C0000721A601A6842F480621A601A6842F4B7
:10157C0080721A600320FFF7D3FF0F20FFF7C2FD24
:10158C00002008BD003C024008B5FFF7E5FFFFF75F
:10159C007FFFFEF72DFF08BD08B50D4B1B6813B977
:1015AC000C4A0B4B1A600A4B1A68C31C23F003033A
:1015BC00134409498B4206D900F010F80C23036040
:1015CC004FF0FF3008BD02490B60104608BD00BF4C
:1015DC000C0100202801002000FC0020014B1868A1
:1015EC00704700BF80000020034613F8012B002A2F
:1015FC00FBD1181A0138704730B5141E9BB0054644
:10160C0004DA8B2303604FF0FF301CE04FF40272BE
:10161C00ADF80C2014BF04F1FF3222460292059261
:10162C004FF6FF7200910491ADF80E2069461A46F0
:10163C001E9B00F075F8431CBCBF8B232B6014B1B0
:10164C00009B00221A701BB030BD000073B50093D4
:10165C00054B06460D461446186831462A46234665
:10166C00FFF7CAFF02B070BD800000202DE9F047E3
:10167C008E68B34282460C469046994640D38A897E
:10168C0012F4906F3AD0256809696F1A65690223C4
:10169C0005EB450595FBF3F57B1C4B449D4238BF90
:1016AC001D4653050FD5294600F03CFB064698B164
:1016BC0021693A4600F0CBFAA38923F4906343F0F6
:1016CC008003A38113E02A4600F082FB064670B922
:1016DC005046216900F0E2FA0C23CAF80030A389C5
:1016EC0043F04003A3814FF0FF30BDE8F087266143
:1016FC0065613E44ED1B2660A5604E46B14500D2A7
:10170C004E4632462068414600F0ACFAA3689B1B5B
:10171C00A36023681E4426600020BDE8F08700000B
:10172C002DE9F0439DB0064603938B891C060D46AC
:10173C0090460CD50B6953B9402100F0F3FA2860A0
:10174C00286110B90C233360CCE040236B6100237B
:10175C00099320238DF8293030238DF82A30434605
:10176C001C4613F8012B1AB9B4EB08090FD002E090
:10177C00252AF5D1F8E73046294642464B46FFF775
:10178C0075FF013000F0A980099B4B440993237825
:10179C00002B00F0A28000234FF0FF32049307933C
:1017AC00059206938DF853301A9304F101084446C0
:1017BC00DFF8489121784846052200F039FA08F103
:1017CC000108049B30B1C9EB000001228240134395
:1017DC000493ECE7D80644BF20228DF85320190758
:1017EC0044BF2B228DF8532022782A2A02D0079945
:1017FC0023460EE0039A111D12680391002ABBBF09
:10180C00524243F0020307920792B8BF049301348B
:10181C000AE01C4601332278303A092A03D80A2000
:10182C0000FB0121F5E7079123782E2B1AD1637861
:10183C002A2B0AD1039B1A1D1B680392002BB8BFDD
:10184C004FF0FF33023405930CE0611C00220C4670
:10185C0001312378303B092B03D80A2000FB0232DC
:10186C00F5E70592DFF8988021784046032200F0D6
:10187C00DFF938B1049AC8EB0000402383401343CE
:10188C000493013421781A488DF82810062204F1AB
:10189C00010800F0CDF988B1164B33B9039B07331F
:1018AC0023F007030833039313E003AB0093304694
:1018BC0004A92A46104BAFF3008007E003AB00935A
:1018CC00304604A92A460C4B00F092F8421C0746FD
:1018DC0003D0099B3B44099341E7AB895B0601D4D8
:1018EC00099801E04FF0FF301DB0BDE8F08300BF58
:1018FC00AC2000080000000079160008A2200008A7
:10190C00A82000082DE9F84391461F468A680B6908
:10191C00DDF820809342B8BF1346C9F8003091F827
:10192C00432006460C4612B10133C9F80030236837
:10193C00990642BFD9F800300233C9F80030256847
:10194C0015F006051CD094F843302268003318BFFC
:10195C00012392061FD5E1185A1C302081F8430050
:10196C00224494F8451082F84310023313E03046B9
:10197C00394604F119020123C047013007D0013563
:10198C00E368D9F800209B1A9D42F0DBDBE74FF0AF
:10199C00FF30BDE8F8833046394604F14302C047B6
:1019AC000130F4D02268D9F80050E36802F0060246
:1019BC00042A08BF5D1B2269A3680CBF25EAE575E4
:1019CC0000259342C4BF9B1AED184FF00009A9459E
:1019DC000ADA3046394604F11A020123C0470130B5
:1019EC00D5D009F10109F2E70020BDE8F883000029
:1019FC002DE9FF410C461746227E6E2A9846064674
:101A0C000A9B01F1430100F0AF8012D8632A23D066
:101A1C000AD8002A00F0BC80582A40F0CB8084F809
:101A2C004520DFF804E257E0642A1ED0692A1CD056
:101A3C00C0E0732A00F0B08009D86F2A2ED0702A2B
:101A4C0040F0B880226842F0200222603FE0752A04
:101A5C0024D0782A3BD0ADE01A68111D19601368A8
:101A6C0084F8423004F14205A8E020681A6810F0AE
:101A7C00800F02D0101D186008E010F0400F02F12A
:101A8C000400186002D0B2F9003000E01368002B9B
:101A9C003EDA2D225B4284F8432039E020681A6834
:101AAC0010F0800F02D0101D186007E010F0400FEE
:101ABC0002F10400186001D0138800E01368227E44
:101ACC00DFF864E16F2A0CBF08220A221CE078229E
:101ADC00DFF858E184F845202268186812F0800F6E
:101AEC0000F104051D6003D1550601D5038800E003
:101AFC000368D00744BF42F0200222601BB9226861
:101B0C0022F0200222601022002084F8430002E020
:101B1C00DFF814E10A226568A560002DA2BF2068D9
:101B2C0020F00400206003B965B10D46B3FBF2F060
:101B3C0002FB10331EF8033005F8013D0346002864
:101B4C00F4D100E00D46082A0BD12368DA0708D53A
:101B5C00236962689A42DEBF302305F8013C05F127
:101B6C00FF35491B21612EE025681A68606915F064
:101B7C00800F03D0151D1D60136808E015F0400F91
:101B8C0002F104051D60136801D0188000E0186094
:101B9C00002323610D4616E01A68111D19601568A3
:101BAC0062682846002100F043F808B1401B6060D1
:101BBC00636804E004F1420584F8422001232361A8
:101BCC00002384F84330CDF800803046214603AA28
:101BDC003B46FFF797FE013002D14FF0FF301FE07C
:101BEC00304639462A462369C0470130F5D0236870
:101BFC009B0705D4E068039B9842B8BF18460FE0DA
:101C0C000025E368039A9B1A9D42F3DA3046394665
:101C1C0004F119020123C0470130DED00135F0E791
:101C2C0004B0BDE8F08100BFB3200008C420000858
:101C3C0010B5C9B202449042034606D01C788C42BF
:101C4C0000F10100F7D1184610BD002010BD10B5F1
:101C5C00431E0A44914204D011F8014B03F8014F82
:101C6C00F8E710BD814210B501EB020301D3421E0F
:101C7C000BE09842FBD28118D21AD34204D013F84D
:101C8C00014D01F8014DF8E710BD994204D011F84F
:101C9C00014B02F8014FF8E710BD000030B50029E8
:101CAC003DD051F8042C0B1F1D49002AB8BF9B18BE
:101CBC000A680C4612B95A600B6030BD93420DD2C3
:101CCC0019685818904201BF5A5852181A60426845
:101CDC005A60236030BD994203D80A4651680029E6
:101CEC00F9D1146815199D420AD11B682344D018E8
:101CFC008842136013D10868034413604B680DE0ED
:101D0C0002D90C23036030BD1C681819884204BF2B
:101D1C0008684968596004BF00191860536030BDE9
:101D2C001C01002070B5CC1C24F0030408340C2CCE
:101D3C0038BF0C24002C064603DA0C233360002039
:101D4C0070BD8C42F9D3204A136810461946A1B1D4
:101D5C000A68121B0ED40B2A03D90A608B188C50FC
:101D6C001FE08B420DBF5A684A685A60026018BF68
:101D7C000B4616E00B464968E9E7144D2B681BB976
:101D8C00304600F04BF828603046214600F046F80B
:101D9C00421C0346D1D0C51C25F0030585420AD14F
:101DAC001C6003F10B001A1D20F00700821A0AD0E8
:101DBC005142995070BD3046E91A00F02FF80130AD
:101DCC00BBD02B46ECE770BD1C0100201801002095
:101DDC00F8B5074615460E4621B91146BDE8F84040
:101DEC00FFF7A0BF1AB9FFF759FF2846F8BD00F05E
:101DFC0025F8A8420ED238462946FFF793FF044631
:101E0C0050B131462A46FFF722FF38463146FFF7DC
:101E1C0045FF01E03046F8BD2046F8BD38B5064C0C
:101E2C000023054608462360FFF7B6FB431C02D18E
:101E3C00236803B12B6038BD2001002051F8040C3D
:101E4C000028BEBF091851F8043CC018043870476C
:101E5C000000000001020304010203040607080944
:101E6C0061626F727428292C2065786974696E67B9
:101E7C002E2E2E00537461636B206672616D653A71
:101E8C000A000000205230203D2020253038580A0E
:101E9C0000000000205231203D2020253038580A07
:101EAC0000000000205232203D2020253038580AF6
:101EBC0000000000205233203D2020253038580AE5
:101ECC000000000020523132203D20253038580AC5
:101EDC0000000000204C52203D2020253038580AAC
:101EEC0000000000205043203D2020253038580AA7
:101EFC000000000020505352203D20253038580A55
:101F0C00000000004653522F4641523A0A0000008E
:101F1C002043465352203D2020253038580A0000DB
:101F2C002048465352203D2020253038580A0000C6
:101F3C002044465352203D2020253038580A0000BA
:101F4C002041465352203D2020253038580A0000AD
:101F5C00204D4D464152203D20253038580A000076
:101F6C002042464152203D2020253038580A00009E
:101F7C004D6973630A000000204C522F4558435F93
:101F8C0052455455524E3D20253038580A00000019
:101F9C006173736572745F706172616D282920665C
:101FAC0061696C65643A2066696C65202225732230
:101FBC002C206C696E652025640A00002E2E2F7370
:101FCC00797374656D2F7372632F73746D3332660E
:101FDC00342D68616C2F73746D3332663478785F8E
:101FEC0068616C5F7263632E630000002E2E2F738A
:101FFC00797374656D2F7372632F73746D333266DE
:10200C00342D68616C2F73746D3332663478785F5D
:10201C0068616C5F6770696F2E630000537973742D
:10202C00656D20636C6F636B3A20257520487A0AC6
:10203C00000000002E2E2F73797374656D2F737250
:10204C00632F73746D333266342D68616C2F737427
:10205C006D3332663478785F68616C5F636F72746D
:10206C0065782E63000000005B55736167654661FF
:10207C00756C745D0A0000005B4275734661756C8B
:10208C00745D0A005B486172644661756C745D0A2C
:10209C00000000004300232D302B2000686C4C0006
:1020AC00656667454647003031323334353637384C
:1020BC0039414243444546003031323334353637AA
:0920CC0038396162636465660045
:1020D80078563412140100200000000000000000AF
:1020E8000000000001020304060708090024F400A8
:1020F80000000000000000000000000000000000D8
:1021080000000000000000000000000000000000C7
:10211800A0200008000000000000000000000000EF
:1021280000000000000000000000000000000000A7
:102138000000000000000000000000000000000097
:102148000000000000000000000000000000000087
:082158002000002032547698AB
:04000005080002B934
:00000001FF
